:020000040800F2
:10000000900A002035020008491E0008451E00081D
:10001000471E00081D1B00089D2D00080000000061
:10002000000000000000000000000000152600088D
:100030001F1B0008000000000F2300081527000800
:100040004F0200084F0200084F0200084F0200084C
:100050004F0200084F0200084F0200084F0200083C
:100060004F0200084F0200084F0200084F0200082C
:100070004F0200084F0200084F0200084F0200081C
:100080004F0200084F0200084F0200084F0200080C
:100090004F0200084F0200084F0200084F020008FC
:1000A0004F0200084F0200084F0200084F020008EC
:1000B000512800084F0200084F0200084F020008B4
:1000C0004F0200084F0200084F0200084F020008CC
:1000D0004F020008512B00084F0200084F02000891
:1000E0004F0200084F0200084F02000800F002F81B
:1000F00000F090F80AA090E8000C82448344AAF132
:100100000107DA4501D100F085F8AFF2090EBAE82F
:100110000F0013F0010F18BFFB1A43F0010318473B
:100120000037000020370000103A24BF78C878C19B
:10013000FAD8520724BF30C830C144BF04680C60ED
:10014000704700000023002400250026103A28BF35
:1001500078C1FBD8520728BF30C148BF0B60704739
:100160006E2900F07B81702900F0BD82662902F0C3
:10017000BF86652902F0BC86672902F0B98661292D
:1001800002F0B88603681B0A28BF41F08001692984
:1001900000F02881642900F02581752900F0228172
:1001A0006F2900F04A82782900F08982E92900F05D
:1001B000E581E42900F0E281F52900F0DF81EF29F3
:1001C00000F04782F82900F088820368DB0928BF25
:1001D00041F08001632900F08B87732900F090873C
:1001E000E32900F09B87F32900F0A08700207047E7
:1001F0001FB500F0F1FF04000020002102F062FEB4
:10020000401C60600020002102F046FEE0601FBD3F
:1002100010B510BD00F0B2FF1146FFF7E9FF02F084
:10022000D9FD01F08FF803B4FFF7F2FF03BC01F032
:1002300093F800000948804709480047FEE7FEE7B9
:10024000FEE7FEE7FEE7FEE7FEE7FEE7FEE7FEE786
:1002500004480549054A064B704700001927000865
:10026000ED00000890040020900A00209006002075
:10027000900600201CB50C46064B7B446946009056
:10028000204600F004F904460020694600F012F907
:1002900020461CBD370200004FF0013C50F8042BF3
:1002A00051F8043B9A4221D1A2EB0C03934313EA89
:1002B000CC1317D150F8042B51F8043B9A4215D1B6
:1002C000A2EB0C03934313EACC130BD150F8042B8D
:1002D00051F8043B9A4209D1A2EB0C03934313EA71
:1002E000CC13DBD04FF00000704700BFD01A01BA2A
:1002F000B1FA81F101F0180122FA01F0CB40C1F10D
:100300002001DBB2C0B2C01A2CFA01F3D11A91431A
:1003100011EAC311E6D1704770477047704770B556
:10032000044685690068C10601D5302600E0202614
:10033000C00707D070BDD4E9012130469047206A3C
:10034000401C20626D1EF6D570BD70B504468569EF
:100350000078C00707D170BDD4E901212020904763
:10036000206A401C20626D1EF6D570BD09684A05E2
:1003700001D540B27047C905FCD500B27047096885
:100380004A0501D5C0B27047C905FCD580B2704797
:1003900070B50C460546012A05D02878800600D5A0
:1003A000EA69002302E0012305E05B1C934202D2CC
:1003B000E05C0028F9D1A869E618C01AA861286A8B
:1003C000184428622846FFF7AAFF04E0D5E9012176
:1003D00014F8010B9047B442F8D32846FFF7B5FF55
:1003E00070BD00002DE9F041064600241068752913
:1003F000314616A510D0FFF7B9FF002802DA4042B7
:1004000013A507E031688A0701D512A502E0490764
:1004100004D511A5012401E0FFF7B1FF00210A2254
:1004200006F1240709E0B0FBF2FCB0FBF2F302FB9B
:100430001C00303078541846491C0028F3D123465C
:100440002A463046BDE8F04100F061BA00000000E5
:100450002D0000002B000000200000001168026841
:10046000006A530501D508700AE0D30501D508805C
:1004700006E0130603D5C217C1E9000200E00860D8
:100480000120704701694A1C02610878704700B575
:100490008FB0CDE901310021059105497944CDE9BD
:1004A00003101146684600F029F90FB000BD0000A6
:1004B000E5FFFFFF0A6802F8010B0A6070470000C1
:1004C0002DE9FF5F15468A460446DFF8AC80F84404
:1004D0000027D8E900103E46CDE9001010E03AF8B8
:1004E00016106A4602A800F025FE411C07D02178AC
:1004F000890603D5E269391891420DD80744761C64
:100500002078800602D5E069B84205DDAE42E6DB20
:100510003AF816000028E2D1A069C01BA06120466D
:10052000FFF7FDFED8E90010CDE90010002017E02C
:100530003AF818106A4602A800F0FCFDB0F1FF3F3F
:1005400081460BD000250DF1080B05E0D4E901210F
:100550001BF8050090476D1C4D45F7D308F10100CD
:10056000B0428046E4DB206A384420622046FFF730
:10057000ECFEBDE8FF9F0000523200002DE9F04183
:100580008046D21D22F007020025D2E90002F5299B
:1005900015A614D0011E72F1000106DA0023D0EB7B
:1005A000030063EB020211A608E0D8F800108B07E5
:1005B00001D50FA602E0490701D50EA60125114677
:1005C000002408F1240704E000F05CF930323A55C9
:1005D000641C50EA0102F7D12B46324621464046C0
:1005E000BDE8F04100F093B9000000002D000000CC
:1005F0002B0000002000000030B4002100F1240492
:1006000008E002F00705D208303542EA4372DB0801
:100610006554491C52EA0305F3D10468002310A273
:10062000250707D5A40600D421B1C46901230DA272
:10063000641EC46130BC00F06AB910B5044621469E
:100640001068FFF79CFE02462046BDE810400023DC
:10065000D2E7D21D22F00701D1E90023CCE7000048
:100660000000000030000000F0B40D4601880905CC
:1006700002D5214C7C4402E01F4C7C440E34002106
:1006800000F1240608E002F00F071209E75D42EAD4
:1006900003721B097754491C52EA0307F3D102780D
:1006A0000023120704D5702D06D009B1022311349E
:1006B0002246F0BC00F02BB901231034F8E770B5E6
:1006C00004460D4621461068FFF759FE02462946AA
:1006D0002046BDE870400023C6E7D21D22F0070384
:1006E000D3E90023C0E70368126843F020030360E6
:1006F0000823C3610023B7E7B43000002DE9F05FA1
:10070000894604464FF0000ADFF874B1FB44C0F894
:1007100020A02046E1688847002874D0252806D00C
:10072000D4E901219047206A401C2062F1E70026AD
:100730005F462046E16888472028054607DB312DC3
:1007400005D2781910F8200C08B10643F1E7B0077C
:1007500001D526F00406C4F81CA00027C4F818A090
:100760002A2D09D0284602F02EFB38B304EB870867
:10077000303DC8F8185019E059F8041B204604EB26
:1007800087029161E1688847012F054618D1E06929
:10079000002820DA26F020061DE0D8F8180000EB2B
:1007A000800005EB40003038C8F818002046E168AA
:1007B0008847054602F007FB0028EED1012F0AD03A
:1007C0002E2D08D12046E16888477F1C0546022F60
:1007D00046F02006C4DBA069002803DA404246F058
:1007E0000106A061F00701D026F010066C2D0BD099
:1007F000682D09D04C2D39D06A2D35D0742D35D0C7
:100800007A2D33D016E038E0E1682F46204688473D
:10081000B842054609D16C2F26D04FF48060E168BC
:10082000064320468847054604E06C2F1AD04FF453
:10083000807006430DB3A5F14100192802D8203578
:1008400046F400664A462946204626604E46FFF793
:1008500087FC80B101280BD0F61D26F0070000F1BF
:10086000080956E74020E4E78020D8E70020D6E7D3
:1008700006F104094DE7284652E7206ABDE8F09FDB
:100880004430000030B5B0F10A024FEA900E71F129
:1008900000034EEA817EB0EB0E0061EB91014FEA5E
:1008A000101E4EEA017E10EB0E0041EB11114FEAD3
:1008B000102E4EEA016E10EB0E0041EB11214FEAB3
:1008C000104E4EEA014E10EB0E0041EB1141401864
:1008D00041F100014FEAD00040EA41704FEAD101F6
:1008E00010EB80054FEA810444EA907444EB010464
:1008F0006D1944EB0404521BA3414FF0000348BFA1
:100900000A3200D530BD401C41F1000130BD2DE957
:10091000F0470D4699469246044600F124080168C6
:10092000880604D5E06921F01001216000E0012073
:10093000A84201DD471B00E00027A1697A1902EBFC
:100940000900081AA0612078C00602D42046FFF7EB
:10095000E6FC002608E0D4E901211AF806009047D9
:10096000206A401C761C20624E45F4DB2078C006CD
:100970000AD52046FFF7D3FC06E0D4E90121302058
:100980009047206A401C2062381EA7F10107F4DC62
:1009900007E0D4E9012118F805009047206A401CBF
:1009A0002062281EA5F10105F3DC2046FFF7CDFCEF
:1009B0002078000602D50220BDE8F0870120FBE781
:1009C00070472DE9FF4F0C461E464FF0FF378BB0A6
:1009D000D2E90001DDF860800A908A46C1F30A5529
:1009E00005B93D46002108464FF00000BAF1000F5E
:1009F00000F4400005DA00EB80004FF4400101EA0A
:100A000050004FEA9059B9F1010F00DDB9460A983C
:100A100050EA4A000ED044F61050A5F2FF35454387
:100A20002F14B8F1000F1ED07542291E1EDDC9F12A
:100A300000021CE0B8F1010F4FF0000001D030219E
:100A400003E0F24305E02154401CB042FBDB30469A
:100A50000022002121540B99C1F80880C1E900202F
:100A60000FB0BDE8F08FBD1B6D1CDEE74A4600DA13
:100A7000694206A800F0F4FB06AB93E8070003AB5D
:100A800083E8070050460A9900F06DFC8DE80700E6
:100A9000A0F500501F3800900398002D0ADD42F2A7
:100AA0001F014A460844002303A90390684600F04A
:100AB000D6FE09E0A0F500504A461F38002303A9DE
:100AC0000390684600F0E0FE8DE807000004000C8B
:100AD00003D04FF0FF30410800E01046B8F1000F9E
:100AE00003D00022009215461EE0751E05D4FFF7C4
:100AF000C9FE303262556D1EF9D5B3460122084356
:100B000002D000227F1C04E02078302801D100228E
:100B10007F1E002A099784D01DE0112D07DAFFF708
:100B2000B1FE303262556D1C50EA0102F5D1084326
:100B300002D00098C8B10EE00021681E05E0235CD9
:100B4000625C63542254401E491C8142F7DBAB4671
:100B5000A81B401E0990002004F80B000B98099A6E
:100B6000C0F80880C0E9002B7AE711264FF0000892
:100B700057E72DE9F04F88460446D21D22F00701C1
:100B800091B0D1E90001CDE90A0102F008F902466D
:100B90000B98C00F01D02D2007E02068810701D5F8
:100BA0002B2002E0202101EAC000032A099001D095
:100BB000072A05DB03464146204600F011FB0BE106
:100BC0002078800601D5E06900E00620B8F1650FC5
:100BD000814606D0B8F1660F18D0B8F1670F70D112
:100BE00031E00020B9F1110F009001DB112301E089
:100BF00009F101030AAA01A90CA8FFF7E2FEDDE949
:100C00000C70002609F10105834647E001204B46A0
:100C100000904FF000470AAA01A90CA8FFF7D1FEE7
:100C2000DDE90DB00C995D46002610B909F101000F
:100C30000D18B9EB050003D4C0F1FF3609F1010529
:100C4000A5EB09002BE0B9F1010F01DA4FF0010922
:100C50000020B9F1110F0090484601DD112300E09A
:100C600003460AAA01A90CA8FFF7ABFEDDE90C7048
:100C70004D4600268346207800070AD4AB4500DAAB
:100C80005D4601A8012D04DD411911F8011C302930
:100C900007D04F4502DA17F1040F04DA012082462B
:100CA0000FE06D1EEEE7002F02DCED1B3E4403E07B
:100CB000781CA84200DD7D1CB81B00F1010A4FF032
:100CC00000472078000703D4AA4501DB4FF0FF3A24
:100CD0000021B7F1004F0DF143088DF8431024D0E7
:100CE00002202B23002F01DA7F422D230A21021E2E
:100CF000A0F1010000DC5FB197FBF1FC97FBF1F282
:100D000001FB1C7C17460CF1300C08F801CDEEE716
:100D1000A8F1010003702188090501D5452100E0F3
:100D20006521A0F1010800F8011C09980FA9A1EBA9
:100D30000807FF1D00B10120411901EBEA70A1690C
:100D40003844081A401EA0612078C00602D420460C
:100D5000FFF7E5FA099828B1D4E901219047206A04
:100D6000401C20622078C00622D52046FFF7D7FA23
:100D70001EE0002E04DBB34502DD01A8805D00E02B
:100D80003020D4E901219047206A401C2062761C63
:100D9000AAF101005FEA000A0AD100F01DFAC0685A
:100DA0000168405CD4E901219047206A401C206220
:100DB000281EA5F10105DCDC07E0D4E9012118F8C3
:100DC000010B9047206A401C2062381EA7F10107E2
:100DD000F3DC2046FFF7B9FA032011B041E600002A
:100DE0002DE9F04F04460D46D21D22F0070089B0D0
:100DF000D0E900974846394601F0D1FF0246F80F86
:100E000001D02D2307E02068810701D52B2302E0C4
:100E1000202101EAC0038DF820300BB1012000E051
:100E20000020032A824601D0072A04DB29462046F7
:100E300000F0D6F93FE12078800601D40D2500E0CE
:100E4000E569C7F30A560D2D49DA00214FEA175B11
:100E500008464FF00000002F00F4400007DA00EBD6
:100E600080004FF4400100EBD07001EA6000811572
:100E7000012901DD4FF0FF3100224FEA850CBCF162
:100E8000180F06D31346ACF118004FF08052C24041
:100E900003E04FF4801323FA0CF30CF10C0CBCF1BB
:100EA000200F04D3ACF1200C09FA0CF001E007FA92
:100EB0000CF000294FF0004801DD18B90FE00ED109
:100EC00040450CD319EB02095F4121B9404502D1DD
:100ED0009F4329EA0209BBEB175F00D0761C2088EC
:100EE000000502D57B48784402E07A4878441938F6
:100EF00008AA302302F80A30037C0AF10101002E0F
:100F00000AF1020A53546A4602DC4FF0300101E054
:100F10004FF031014FF001088DF8001002D0A6F219
:100F2000FF3603E059EA470100D06B4E002D02DC8A
:100F30002178090704D54FF002082E218DF8011001
:100F4000C44600210BE0C7F303433F01C35C491CC7
:100F50006D1E02F80830052908F1010801DA002D9C
:100F6000F1DC00210CE000EB1973491C1B786D1EAD
:100F7000082902F808304FEA091908F1010801DAD6
:100F8000002DF0DC21688B0602D516E0A8F10108DF
:100F9000E04505DD02EB080313F8013C302BF5D0EA
:100FA000B8F1000F09DD02EB080313F8013C2E2B0A
:100FB00003D1090701D4A8F10108002D05DD3E2168
:100FC00002F808106D1E08F10108407C002E02F89E
:100FD000080008F1010804DA2D20764202F8080022
:100FE00002E02B2002F808000A214FF47A708642B2
:100FF00008F101080BDB96FBF0F3303302F8083000
:1010000096FBF0F308F1010800FB136601E0642E83
:101010000CDB642096FBF0F3303302F8083096FBCB
:10102000F0F308F1010800FB136601E00A2E06DB6D
:1010300096FBF1F0303002F8080008F1010896FB49
:10104000F1F001FB1060303002F80800A16908F1EE
:10105000010808EB050202EB0A00081AA0612078DB
:10106000C00602D42046FFF75AF9216A08AE01EB08
:101070000A00206204E0D4E9012116F8010B904730
:10108000BAF1010AF7D22078C00602D52046FFF750
:1010900046F96E4609E016F8010B3E280FD0D4E958
:1010A00001219047206A401C2062B8F10108F2D269
:1010B0002046FFF74AF909B00320BDE8F08F206A07
:1010C0002844206203E0D4E90121302090476D1EBE
:1010D000EBD3F8E78E28000002FCFFFF10B5436950
:1010E00013B1AFF3008001E0FFF752F9012010BD0A
:1010F000127800F124010A7000224A700122EDE703
:1011000011684FF0FF32E9E710B5436913B1AFF34F
:10111000008001E0FFF7D4F9012010BD128800F132
:10112000240182840022C2840122EDE711684FF07D
:10113000FF32E9E770B516460C46054600F044F864
:10114000036893F80101012806D0FF2C0FD8185D21
:1011500068B101202C7070BDD3F8070132462146DA
:1011600003F2071303442846BDE8704018474FF0C8
:10117000FF3070BD00487047300400207546FFF70F
:10118000F9FFAE4605006946534620F00700854644
:1011900018B020B5FFF75CF8BDE820404FF000061E
:1011A0004FF000074FF000084FF0000B21F007014F
:1011B000AC46ACE8C009ACE8C009ACE8C009ACE892
:1011C000C0098D467047000010B500F005F8001DFD
:1011D00010BD00BFF11C0000004870475004002003
:1011E0002DE9F0411F46044603260168072A01F451
:1011F000006004DB08B116A505E016A503E008B100
:1012000015A500E015A521F010002060A069C01E02
:10121000A0610FB1401EA0612046FFF780F84FB1DA
:10122000D4E9012138469047206A401C2062C01C46
:10123000206206E0206AFAE7D4E9012115F8010BE3
:101240009047761EF8D22046FFF77FF8BDE8F08180
:101250004E414E006E616E00494E4600696E66005A
:101260002DE9F047814616468AB0354878440DC8C6
:101270008DE80D0032487844801C03AC0DC884E82A
:101280000D0041F69B300844372190FBF1F290FBB2
:10129000F1F5A5F1800501FB12041B3C02D5644267
:1012A000012000E00020DFF898A080460027FA44E3
:1012B000AAF1BE0A0EE0E0070AD03246684607EB04
:1012C000470101230AEB810100F0DEFA8DE80700F7
:1012D00064107F1C002CEED1194F7F44AE3F19E003
:1012E000E80715D007EB04100DF1180A90E80E007E
:1012F0008AE80E00C068F04201D198190890324681
:10130000012306A903A800F0BFFA03AB83E8070096
:101310006D10641C002DE3D14FF001033246694685
:10132000B8F1000F03A802D000F099FA01E000F034
:10133000ABFAC9E90001C9F808200AB0BDE8F08796
:101340009825000010B50446AFF300802046BDE8A4
:101350001040FEF768BF000001491820ABBEFEE751
:101360002600020070475FEA400C08BF91F0000FB2
:101370004FEA8C234FEAC12243EA51514FEA1C50F5
:1013800018BF00F5F0404FEA300018BF41F00041AF
:101390005FEA6C5C00F02980BCF1FF3F08BF40F0C1
:1013A00080407047130C06BF12044FF0100C4FF032
:1013B000000C130E04BF12020CF1080C130F04BF33
:1013C00012010CF1040C930F04BF92000CF1020CFB
:1013D000D30F04BF52000CF1010C11464FF0000274
:1013E000A0F11F00A0EB0C00704711F0004F08BFE8
:1013F000704731F000413FF4D5AF0B0C06BF090434
:101400004FF0100C4FF0000C0B0E04BF09020CF152
:10141000080C0B0F04BF09010CF1040C8B0F04BF67
:1014200089000CF1020CCB0F04BF49000CF1010C38
:10143000CCF12003A0EB0C0022FA03F302FA0CF229
:1014400041EA030100F10100704720F07F4C80EA7F
:10145000030023F07F47ACEB070303F57C5300F058
:10146000004003F1FF032DE980494FEA154B09B411
:101470004FEA144325EA0B4E24EA03480FF20426F0
:1014800006EB132749083E785FEA320203FB066742
:10149000C7F5000707FB06F64FEA54374FEAD64672
:1014A00006F1020607FB066CCCF1005C4FEA1C4714
:1014B0002CEA074C07FB06F40CFB06F504EB15467B
:1014C0004FEA961634BF00204FF000404FEAD13764
:1014D00006FB07FC4FEA1C4C0CFB0BF7D21B03FB73
:1014E0000CF761EB07010CFB0EF7B0EB074072EB5A
:1014F00017420CFB08F734BFA2EB0742B2EB0742DE
:1015000061EB17414FEA0C444FEA910706FB07FCD9
:101510004FEA1C4C0CFB0BF7B0EBC74072EB573299
:1015200003FB0CF734BFA2EBC742B2EBC74261EB3F
:1015300057310CFB0EF7B0EBC70072EB57720CFB88
:1015400008F734BFA2EBC702B2EBC70261EB5771D9
:10155000039F4FEA816141EA921104EBCC044FEA08
:10156000D1374FEA826206FB07FC42EA90124FEA4B
:1015700080604FEA1C4C0CFB0BF7D21B03FB0CF7F3
:1015800061EB07010CFB0EF7B0EB074072EB174263
:101590000CFB08F734BFA2EB0742B2EB074261EB4A
:1015A00017414FEA8C554FEA910704EB9C2406FB48
:1015B00007FC4FEA1C4C0CFB0BF7B0EBC74072EB7F
:1015C000573203FB0CF734BFA2EBC742B2EBC74262
:1015D00061EB57310CFB0EF7B0EBC70072EB5772A3
:1015E0000CFB08F734BFA2EBC702B2EBC70261EBFA
:1015F000577115EB4C254FEA816141EA92114FEA90
:1016000082624FEAD13742EA901206FB07FC44F1AE
:1016100000044FEA80604FEA1C4C0CFB0BF7D21B16
:1016200003FB0CF761EB07010CFB0EF7B0EB074077
:1016300072EB17420CFB08F734BFA2EB0742B2EB88
:10164000074261EB174115EB1C154FEA813141EA66
:1016500092414FEA823242EA90424FEA80304FEAAA
:101660000C7644F1000448EA03434EEA0B484FF07D
:10167000000EB2EB080C71EB030724BF624639463B
:101680004EEB0E0E4FF0000B0018524149414BEB50
:101690000B0BB2EB080C71EB03077BF1000B24BFC3
:1016A000624639464EEB0E0E4FF0000B00185241C9
:1016B00049414BEB0B0BB2EB080C71EB03077BF1D1
:1016C000000B24BF624639464EEB0E0E51EA02076C
:1016D00018BF46F0010616EB0E7655F1000254F1E4
:1016E000000103D5BDE88901BDE80088BDE8890196
:1016F000BDE80048B619524141EB0101A3F10103D5
:10170000704780807F7E7D7C7B7A7978777676756E
:101710007473727171706F6E6E6D6C6C6B6A6A69E6
:101720006868676666656464636362616160605F80
:101730005F5E5E5D5D5C5C5B5B5A5A5959585857F9
:101740005756565555555454535352525251515061
:1017500050504F4F4F4E4E4D4D4D4C4C4C4B4B4BB4
:101760004A4A4A49494948484847474747464646FA
:101770004545454444444443434343424242424135
:101780004141002B9C4630D477002BD01CB54FEA4A
:10179000370703B44FF010004FF01001BAF1000FFB
:1017A00006D0BCF1000FDCBF40F0080040F008019B
:1017B0004FF000000FBCBDE810400BF1010BBBF176
:1017C000010F08BF5FEA170722BF12F1010211F1F2
:1017D00001014FF0004143F1000300F0004043EAF3
:1017E00000007047F9D35708D0E746EA064613F1E0
:1017F000400F4FEA16461FDD13F1200FDFBF1643DF
:101800000A46002120335B42BED0C3F1200746EADE
:10181000064602FA07F74FEA164646EA0706C3F1FC
:10182000200722FA03F201FA07F721FA03F14FF039
:10183000000342EA0702A7E746EA020646EA06462E
:101840004FEA164646EA0106BCBF46EA0646360C93
:101850004FF000034FF000024FF0000194E72DE934
:10186000804C9A46934670B491E8380007C831EA34
:10187000400C48BF34EA430C03D5FFF7E6FDFFF701
:1018800080FFF0BCBDE8008C2DE9804C9A46934661
:1018900070B491E8380007C810F0804F08BF13F00B
:1018A000804F03D100F005F8FFF76BFFF0BCBDE8F7
:1018B000008C20F07F4780EA030023F07F4C07EB89
:1018C0000C03A3F57C5300F00040A3F1FE0392F05B
:1018D000000F00F0B38095F0000F00F077802DE945
:1018E00001494FEA11404FEA144621EA004800FB43
:1018F00006FC24EA064708FB06F607FB08F800FB8F
:1019000007F718EB06484CEB164C4FEA124B18EB56
:1019100007484FEA15464CEB174022EA0B4E0BFBEB
:1019200006FC25EA06470EFB06F607FB0EFE0BFB40
:1019300007F71EEB064E4CEB164C4FF000061EEB65
:10194000074E4CEB174B18EB0B0840F1000018EB5F
:101950000E0B58EB000840F100008F1A4FF0000109
:101960003CBFC943661B14BFB5EB040C00213CBF50
:10197000C943F61B4FEA17444EEA8E0E27EA044588
:101980004FEA1C4704FB07622CEA074C05FB07F7EC
:101990000CFB05F604FB0CFC16EB074642EB17426A
:1019A00016EB0C4642EB1C421BEB060658EB020200
:1019B000414146EA9E0601D5BDE80189B61952416A
:1019C00041EB0101A3F10103BDE801894FEA144590
:1019D0004FEA114724EA054621EA074C05FB07F4C4
:1019E00006FB07F70CFB06F105FB0CFC11EB0741AE
:1019F00044EB17444FEA124711EB0C4144EB1C44F3
:101A000022EA074C05FB07F206FB07F70CFB06F67C
:101A100005FB0CFC16EB074642EB174216EB0C4697
:101A200042EB1C456A1854F1000148BF7047B619D3
:101A3000524141EB0101A3F10103704795F0000F02
:101A400037D04FEA11424FEA144721EA024624EA0E
:101A5000074C02FB07F106FB07F70CFB06F402FB41
:101A60000CFC14EB074441EB17414FEA154714EB0C
:101A70000C4441EB1C4125EA074C02FB07F506FB31
:101A800007F70CFB06F602FB0CFC16EB074645EBD2
:101A9000174516EB0C4645EB1C42121951F100019B
:101AA00048BF7047B619524141EB0101A3F1010350
:101AB00070474FEA14454FEA114724EA054621EAE8
:101AC000074C05FB07F106FB07F70CFB06F24FF08E
:101AD000000605FB0CFC12EB074241EB174112EB31
:101AE0000C4251EB1C4148BF7047921841EB010179
:101AF000A3F101037047000008B50820ADF800000D
:101B000048208DF8030003208DF802006946024842
:101B100000F0D4F808BD000000080140FEE770475F
:101B200000B502464FF47A7302E0184600F003F85D
:101B3000521EFAD200BD00EBC000C1004FF0E02001
:101B4000416100218161052101610169C903FCD561
:101B5000042101617047000010B50221034800F024
:101B60002BF9012800D0002010BD00000008014022
:101B700038B50021082326A2084600F064FB102196
:101B8000082328A2084600F05EFB274D0824009495
:101B90006A68042310212020921E00F031FB0823E4
:101BA00022A21021482000F04EFB0094AA680323D3
:101BB0001021582000F024FB08231DA22021102012
:101BC00000F041FB0094EA6804232021084600F05D
:101BD00017FB082317A22021482000F034FB0094B3
:101BE0002A6903232021582000F00AFB3021082312
:101BF00011A2084600F027FB0094EA780223302166
:101C0000402000F0FDFABDE8384000F033BB000092
:101C100048542D636172726965722D636F756E74BD
:101C200000000000483A0000180000204C3A000074
:101C3000433A0000543A0000533A00002DE9F843BB
:101C40000121042000F07AFC0120ADF80000DFF84B
:101C5000648004248DF803406946404600F02EF865
:101C60000225ADF8005048268DF8036003278DF853
:101C700002706946404600F021F8ADF800408DF84A
:101C800003608DF802706946404600F017F80121A4
:101C9000102000F053FCE002ADF8000010208DF899
:101CA00003008DF802506946034800F007F8BDE8CC
:101CB000F88300000008014000100140F0B5CA7828
:101CC000002502F00F03D20601D58A7813430A7863
:101CD0004FF00F0E12F0FF0F4FF001021CD00468FE
:101CE0000F8802FA05F63740B74211D14FEA850C4A
:101CF0000EFA0CF724EA070703FA0CF43C43CF78FA
:101D0000282F02D0482F02D002E0466100E0066191
:101D10006D1C082DE4D304600C88FF2C1ED9446888
:101D20005FF0000606F1080702FA07F50F882F405A
:101D3000AF420FD14FEA860C0EFA0CF7BC4303FA00
:101D40000CF73C43CF78282F00D14561CF78482F3E
:101D500000D10561761C082EE4D34460F0BD00007C
:101D6000F0B5144C002801DAE36900E06368420D25
:101D7000120185B2C0F301579540C0F30346032F0B
:101D800005D0C2020AD50322B240934307E023F0F4
:101D90007062636823F07063636002E0AB4343F0FA
:101DA000706201B12A43002801DAE261F0BD62608D
:101DB000F0BD0000000001400246002092680A4287
:101DC00000D0012070470AB101617047416170473E
:101DD00070B500240FA000F01EFC641CE4B2032CBC
:101DE000F8D3174D00244FF40056012231462846FF
:101DF000FFF7E9FF6420FFF793FE002231462846F3
:101E0000FFF7E1FF6420FFF78BFE641CE4B2082CAF
:101E1000EBD370BD4572726F722121212DE59CA814
:101E2000E7BB93E5B0BEE7A9BAE6AEB5E4B8ADE569
:101E30008F91E78EB0E88AAFE789870D0A0000002E
:101E400000100140FEE7FEE7704708B54FF4A060C0
:101E500000F042F81C208DF8000002208DF80100EF
:101E60008DF8020001208DF80300684600F002F8AA
:101E700008BD000070B50F23C47801780122F4B1C9
:101E8000144C2468457804F4E064C4F5E064240A42
:101E9000C4F10406E3408478B5401C402C4301F1B2
:101EA000E021230181F80034007800F01F018A400E
:101EB0004009800000F1E020C0F8002170BD01F071
:101EC0001F0082404809800000F1E020C0F8802116
:101ED00070BD00000CED00E00249084302490860B3
:101EE000704700000000FA050CED00E010B500217D
:101EF000074C0A46002004EBC1131A54401CC0B220
:101F00008028FAD3491CC9B20829F3D310BD0000B8
:101F100030000020F0B50B4424E0044685181DE095
:101F20007F2C19D8002917DB3F2915DCCE1701EBD0
:101F300056764FEAE60C0D4F26F0070607EBCC1756
:101F40002744A1EB060E97F800C0012606FA0EF60C
:101F50002CEA060C87F800C0641C24B2A542DFDC22
:101F6000491C09B28B42D8DCF0BD000030000020D3
:101F700038B500204FF47A720021491C9142FCD3FD
:101F8000401C9042F8D30121082000F0D7FA142019
:101F90008DF8030003208DF802004FF480700A4C86
:101FA000ADF8000069462046FFF788FE6015ADF8E1
:101FB000000069462046FFF781FE012000F06EF91F
:101FC000012000F073F938BD000C014070B5002409
:101FD0000646802525FA04F0304000D0012000F0AC
:101FE00065F9012000F05AF9002000F057F9641C4F
:101FF000E4B2082CEED3012000F050F9BDE87040A7
:10200000002000F04BB910B5012000F04FF901207D
:1020100000F044F9002000F049F9BDE8104000202C
:1020200000F03CB910B5002000F040F9012000F0AC
:1020300035F9BDE81040012000F038B910B5FFF7C0
:1020400097FFAE2000F03AF9D52000F037F9802054
:1020500000F034F9A82000F031F93F2000F02EF90B
:10206000D32000F02BF9002000F028F9402000F0E8
:1020700025F9A12000F022F9C82000F01FF9DA208C
:1020800000F01CF9122000F019F9812000F016F977
:10209000CF2000F013F9D92000F010F9F12000F062
:1020A0000DF9DB2000F00AF9302000F007F9A42038
:1020B00000F004F9A62000F001F98D2000F0FEF8F0
:1020C000142000F0FBF8AF2000F0F8F8FFF70EFF47
:1020D000BDE8104000F0CEB80246012000E05043B9
:1020E000491EFCD2704710B50C4640F0B00000F01D
:1020F000E5F8102040EA141000F0E0F804F00F00BA
:10210000BDE8104000F0DAB808B5082B0DD0062B5A
:102110000AD10A4B02EB420203EB4202C03A0092A0
:102120000823062200F00EF808BD054B03EB02124F
:10213000A2F50072102300920822F3E7E8340008A9
:10214000F82E00082DE9F04F1F4616460D46824630
:102150000024FFF7DFFE7F1EF81707EB5070012108
:10216000DFF898B001EBE00743E000203DE000BF5E
:102170000AEB00037F2B36D8E91705EB5171CA1023
:1021800021F00701691A002D03DA521E083112B23C
:1021900009B202EB0409B9F1070F0ED8099A04FB42
:1021A00006F802440BEBC91E18F802201EF803C003
:1021B0008A404CEA020C0EF803C009F10102072A1A
:1021C00011D80BEBC91202EB0308099A04FB06FCB9
:1021D000024498F880301CF80220C1F10801CA407E
:1021E000134388F88030401CC0B2B042C0D3641C96
:1021F000E4B2A742B9DCBDE8F08F00003000002057
:102200002DE9F04700241D4690468A4681460A275C
:10221000089E14E0291B0A20491EFFF75DFFB8FB4A
:10222000F0F0B0FBF7F107FB110204FB069000B2DF
:10223000334651463032FFF767FF641CE4B2AC42CC
:10224000E8D3BDE8F0872DE9F0411E4615468846E3
:102250000746002408E004FB067000B233464146FE
:10226000FFF752FF641CE4B22A5D002AF3D1BDE8F7
:10227000F081000070B5084D002400212046FFF7D2
:1022800032FF05EBC410802100F029F8641CE4B291
:10229000082CF2D370BD00003000002002464FF43D
:1022A00080710148FFF78FBD000C014002464FF4DA
:1022B00000710148FFF787BD000C014010B50446CE
:1022C000FFF7A1FE7820FFF781FE0020FFF77EFEDA
:1022D0002046FFF77BFEBDE81040FFF7A3BE70B5B8
:1022E0000D460646FFF78FFE7820FFF76FFE402071
:1022F000FFF76CFE002404E0305DFFF767FE641C0E
:10230000E4B2AC42F8D3BDE87040FFF78BBE704733
:1023100070B518A000F07FF91C4C61681CA0891EE4
:1023200000F079F9A16822A000F075F9617827A082
:1023300000F071F9E1682DA000F06DF9216933A07A
:1023400000F069F9E17839A000F065F940A000F0EB
:1023500062F90122444D540321462846FFF733FD1C
:102360006420FFF7DDFB21462846BDE870400022CF
:10237000FFF729BD3D3D3D20537461746973746955
:102380006373203D3D3D0D0A000000001800002051
:10239000E4B88AE58D87E6B2BFE695B02D486F6C4C
:1023A0006520436F756E743A20256C750D0A000028
:1023B000E5898DE7A9BAE695B02D4C6561642045A5
:1023C0006D7074793A2025750D0A0000E4B8ADE906
:1023D00097B4E7A9BAE695B02D4D6964646C6520A1
:1023E000456D7074793A2025750D0A00E88AAFE7CB
:1023F0008987E695B02D436869707320436F756EC9
:10240000743A20256C750D0A00000000E5908EE7F7
:10241000A9BAE695B02D547261696C20456D70744F
:10242000793A20256C750D0A00000000E5BD93E5A2
:10243000898DE78AB6E680812D43757272656E7468
:102440002053746174653A2025750D0A0000000060
:102450003D3D3D3D3D456E6420436F756E743D3D91
:102460003D3D0D0A000000000010014010B5FFF7CF
:1024700073FB2449CC78002202233CB1012C17D0F5
:10248000022C1ED0032C33D0CA7010BD50B98868FE
:10249000401C88600878401C087008780328F4D332
:1024A000012023E0C868401CC8600A70CB7010BDD2
:1024B0000028F7D18868401C88600878401C0870A4
:1024C00010BD0028087809D018B148780B78184456
:1024D0004870C868401CC8600A7010BD401C087075
:1024E00008780528F9D3087808610320C87010BD62
:1024F00020B1BDE8104004A0FFF76ABC0869401C89
:10250000086110BD18000020E88AAFE78987E587D9
:10251000BAE78EB0E59CA8E5B0BEE983A8E58CBA21
:10252000E59F9F00044A0029D16901D0014300E0E2
:102530008143D1617047000000100240044A002925
:10254000916901D0014300E081439161704700002F
:102550000010024030B51F494A6812F00C031E4AB1
:1025600003D0042B01D0082B21D002604A680F232E
:102570001A4C03EA1212A35C0268DA4042604B680C
:10258000072505EA1323E35C22FA03F383604B6813
:1025900005EAD323E35CDA40C2604968032303EA17
:1025A0009131231F595CB2FBF1F1016130BD4A68E2
:1025B0004B6802F470124FF0020413F4803F04EBF6
:1025C000924202D04B689B0301D5054B00E0024BC1
:1025D0005A43CAE70010024000127A0004000020AB
:1025E00000093D000A4810B50221416000218160C8
:1025F000C16001610170C17081704FF0804420465C
:1026000000F02DFA2046BDE81040012100F043B94A
:102610001800002070470FB400B599B01BAA684697
:102620001A99FDF727FE684600F014F819B05DF816
:1026300014FB000010B5064C0146204600F0AAFB32
:102640008021204600F00EFB0028F9D010BD0000CC
:102650000038014070B50546002403E0FFF7EAFFAB
:10266000641CE4B2285D0028F8D170BD0CB50021CF
:10267000264801910091026842F4803202604FF4D2
:10268000A063026802F400320092019A521C019287
:10269000009A12B9019A9A42F3D10268920333D593
:1026A000012100911A490A6842F010020A600A6882
:1026B00022F007020A600A6842F002020A604168DA
:1026C000416041684160416841F480614160416816
:1026D00021F47C114160416841F4E81141600168D6
:1026E00041F08071016001688901FCD5416821F0E9
:1026F00003014160416841F0020141604168C1F35A
:1027000081010229FAD10CBD00910CBD00100240DC
:1027100000200240704700000F4810B5016841F0EA
:102720000101016041680D4A1140416001680C4A95
:1027300011400160016821F480210160416821F4A9
:10274000FE0141604FF41F018160FFF78FFF0549D3
:102750004FF00060086010BD001002400000FFF85C
:10276000FFFFF6FE08ED00E070B5048C24F00104D4
:102770000484058B048C4FF6FF7606EA031313439B
:1027800025F0F3050E4A2B4390420ED00D4A90429D
:102790000BD0B0F1804F08D00B4A904205D00B4AC5
:1027A000904202D00A4A904202D124F0020201E093
:1027B00024F00A020A4342F001010383018470BD40
:1027C000002C01400034014000040040000800409B
:1027D000000C0040F0B5048C24F010040484078B36
:1027E000048C4FF6FF7527F4734705EA03333B4328
:1027F00005EA02221A43114B05EA011698420ED04F
:102800000F4B98420BD0B0F1804F08D00D4B98423F
:1028100005D00D4B984202D00C4B984205D124F0C4
:102820002001314341F0100104E024F0A0030B43E8
:1028300043F0100102830184F0BD0000002C014030
:10284000003401400004004000080040000C00403B
:1028500010B502214C07204600F027F8002812D0BE
:102860000221204600F014F808210748FFF7A4FAD7
:10287000002808D105484168491C41604168C907E2
:1028800001D00121817010BD000801401800002016
:10289000C943018270470029018802D041F001013B
:1028A00001E021F001010180704702460020138AF7
:1028B00092890B4202EA010202D0002A00D00120D4
:1028C000704700002DE9F05F0D4604460888434F2D
:1028D000DFF80CC1DFF80C814988AA882B894FF0FA
:1028E000804960B3042833D04FF6FF7E082838D0E3
:1028F000208C9B4620F480502084A38B268C70462D
:1029000000EA022223F473431A4300EA0B30104317
:102910000EEA013EBC420BD0644509D04C4507D0BD
:10292000444505D0304A944202D0304B9C4248D1B5
:1029300026F4005141EA0E0141F4805146E0204660
:10294000FFF712FFE9882046BDE8F05F00F089B884
:102950002046FFF73FFFE9882046BDE8F05F00F022
:1029600088B8208C20F480702084B4F81CA0208CBF
:102970000EEA031313432AF0F30A0EEA012B43EA8B
:102980000A03BC420BD0644509D04C4507D04445EE
:1029900005D0154A944202D0144A944204D120F43E
:1029A000007040EA0B0002E020F42060084340F48D
:1029B0008070A3832084E9882046BDE8F05F00F0A2
:1029C00064B826F402420A4342F48051A0832046B0
:1029D0002184E988BDE8F05F00F05FB8002C014079
:1029E000003401400004004000080040000C00409A
:1029F000002A828901D00A4300E08A43828170471D
:102A000030B5012187B00846FFF78CFD4FF6FF7007
:102A1000ADF810004720ADF80C0000244FF08045C1
:102A2000ADF81240ADF80E4003A9284600F042F878
:102A30000120ADF804000F20ADF80040ADF808000B
:102A4000ADF80240ADF8064069462846FFF73AFF68
:102A5000012202212846FFF7CBFF07B030BD818459
:102A60007047028B22F00C020283028B0A4302831E
:102A70007047028B22F440620283028B4FF6FF7391
:102A800003EA01210A4302837047828B22F00C0281
:102A90008283828B0A4382837047828B22F4406256
:102AA0008283828B4FF6FF7303EA01210A438283FC
:102AB0007047000030B502881B4B1C4C98420DD06B
:102AC000A0420BD0B0F1804F08D0194DA84205D0DC
:102AD000184DA84202D0184DA84203D122F070052B
:102AE0004A882A43154DA84206D0154DA84203D066
:102AF00022F44075CA882A4302808A8882850A881F
:102B0000028598420AD0A04208D00E4A904205D0D1
:102B10000D4A904202D00D4A904201D1097A0186B5
:102B20000121818230BD0000002C014000340140B1
:102B30000004004000080040000C0040001000406D
:102B400000140040004001400044014000480140A2
:102B500070B50C4C40F225552946204600F089F806
:102B600001280DD1204600F011F9014606480170F8
:102B70000121417029462046BDE8704000F062B84E
:102B800070BD0000003801402C00002010B588B056
:102B9000012144F20800FFF7D1FC01210846FFF7AC
:102BA000CDFC01210420FFF7DBF84020ADF8140034
:102BB00018208DF817000320204C8DF8160005A969
:102BC0002046FFF77BF88020ADF8180004208DF830
:102BD0001B0006A92046FFF771F84FF4165000902D
:102BE00000200C21ADF80A10ADF80600144CADF829
:102BF0000C00ADF80800ADF804006946204600F06E
:102C00006FF8012240F22551204600F051F84FF4B0
:102C1000A060FFF761F925208DF8100001218DF8E3
:102C200013108DF811108DF8121004A8FFF722F977
:102C30000121204600F00CF808B010BD000C014046
:102C4000003801400A0A01219140C94301807047C0
:102C50000029818902D041F4005101E021F40051A2
:102C6000818170470246002012880A4200D001206C
:102C7000704730B501F01F0201240025C1F3421353
:102C800004FA02F2012B0FD0022B0FD0838A4FEAF5
:102C900011210088134204FA01F400EA040001D073
:102CA00000B10125284630BD8389F0E7038AEEE7AD
:102CB00010B5C1F3421301F01F040121A140012B03
:102CC00007D0022B07D01430002A026805D00A432F
:102CD00004E00C30F8E71030F6E78A43026010BDDC
:102CE00030B50446008A85B00D464CF6FF710840A9
:102CF000E98801432182A1894EF6F3100140A8889A
:102D00002A8910436A890A431043A081A08A4FF69A
:102D1000FF410840A9890143A1826846FFF71AFCD8
:102D20001948844201D1039800E00298A18909045E
:102D300000EBC00101EB0010296801D5490000E05B
:102D40008900B0FBF1F06422B0FBF2F109010B093C
:102D50006FF018056B4300EB8300A3891D044FF04F
:102D6000320306D503EBC000B0FBF2F000F0070021
:102D700005E003EB0010B0FBF2F000F00F00084399
:102D8000208105B030BD0000003801408088C0F3CC
:102D900008007047C1F3080181807047FEE74900D1
:102DA00050EAC12018BF04204A0D18BF40F00100AE
:102DB00040F2FF72B2EB515F08BF40F00200012801
:102DC00008BF0520704730380A2801D2012070471B
:102DD00000207047FEF732FFFFF712FEFFF735F8CD
:102DE000FFF72CF9FFF7D2FEFEF786FE01221F4DFA
:102DF000540321462846FEF7E6FF4FF4FA78404692
:102E0000FEF78EFE002221462846FEF7DCFF18A0C2
:102E1000FFF701FC1C4D1D4C1D4EDFF878A04FF054
:102E2000000931272878012803D1FFF71FFB85F817
:102E300000902068B0FBF7F107FB110038B920685B
:102E40003168884203D020683060FFF761FAFEF7EE
:102E50008FFE04215046FEF7AFFF0028E2D1FFF7B6
:102E6000C1FB4046FEF75CFEDCE7000000100140BD
:102E70003D3D3D53797374656D2073746172746563
:102E8000643D3D3D0D0A00001A0000201C0000209A
:102E9000140000200008014010B500290AD008786D
:102EA000002807D005487844FDF7F6F9002801D03E
:102EB000002010BD0248784410BD00009A090000AF
:102EC0009209000010B500290AD00878002807D020
:102ED00005487844FDF7E0F9002801D0002010BD36
:102EE0000248784410BD00008A09000082090000F1
:102EF000FDF73FBEFDF774BF0000000000000000BA
:102F00000000000000000000000000F800000000C9
:102F1000000000333000000000160E00160E000006
:102F2000000000000000000040C07840C078400071
:102F3000043F04043F040400007088FC08300000D3
:102F4000001820FF211E0000F008F000E01800002B
:102F500000211C031E211E0000F0088870000000E4
:102F60001E21232419272110000000160E00000046
:102F70000000000000000000000000E01804020053
:102F8000000000071820400000020418E0000000C4
:102F90000040201807000000404080F080404000C2
:102FA0000202010F01020200000000F00000000018
:102FB0000101011F010101000000000000000000EC
:102FC00000B07000000000000000000000000000E1
:102FD00000010101010101010000000000000000EA
:102FE0000030300000000000000000008060180485
:102FF000006018060100000000E010080810E00062
:10300000000F102020100F00001010F8000000002A
:103010000020203F20200000007008080888700071
:1030200000302824222130000030088888483000F1
:103030000018202020110E000000C02010F8000011
:1030400000070424243F240000F8088888080800AA
:103050000019212020110E0000E0108888180000BF
:10306000000F112020110E0000380808C838080091
:103070000000003F00000000007088080888700011
:10308000001C222121221C0000E010080810E00092
:103090000000312222110F00000000C0C00000001B
:1030A0000000003030000000000000C0C000000040
:1030B000000080B070000000000080402010080078
:1030C0000001020408102000404040404040400001
:1030D00004040404040404000008102040800000DC
:1030E0000020100804020100007048080808F000E1
:1030F0000000003036010000C030C828E810E000B1
:103100000718272423140B000000C038E00000003B
:10311000203C23020227382008F8888888700000A5
:10312000203F202020110E00C03008080808380079
:10313000071820202010080008F808080810E000F0
:10314000203F202020100F0008F88888E808100091
:10315000203F20202320180008F88888E808100065
:10316000203F200003000000C0300808083800009D
:1031700007182020221E020008F808000008F8089E
:10318000203F210101213F20000808F80808000025
:103190000020203F2020000000000808F808080058
:1031A000C08080807F00000008F888C028180800D0
:1031B000203F20012638200008F808000000000009
:1031C000203F20202020300008F8F800F8F8080000
:1031D000203F003F003F200008F830C00008F808FA
:1031E000203F200007183F00E01008080810E0000A
:1031F0000F10202020100F0008F808080808F00021
:10320000203F210101010000E01008080810E00043
:103210000F18242438504F0008F8888888887000D8
:10322000203F2000030C3020007088080808380078
:103230000038202121221C00180808F8080818006E
:103240000000203F2000000008F808000008F808EF
:10325000001F202020201F000878880000C83808A0
:10326000000007380E010000F80800F80008F80018
:10327000033C0700073C03000818688080681808B2
:1032800020302C03032C30200838C800C838080030
:103290000000203F2000000010080808C83808007F
:1032A0002038262120201800000000FE0202020023
:1032B0000000007F40404000000C30C000000000D3
:1032C000000000010638C00000020202FE000000FB
:1032D000004040407F00000000201008040810203B
:1032E00000000000000000000000000000000000DE
:1032F00080808080808080800002040800000000C0
:1033000000000000000000000000808080800000BD
:103310000019242222223F2008F8008080000000AB
:10332000003F112020110E0000000080808000006E
:10333000000E112020201100000000808088F8007D
:10334000000E112020103F200000808080800000AF
:10335000001F222222221300008080F08888881813
:103360000020203F2020000000008080808080001E
:10337000006B94949493600008F8008080800000B3
:10338000203F210000203F2000809898000000008E
:103390000020203F202000000000008098980000BE
:1033A00000C08080807F000008F8000080808000DE
:1033B000203F24022D302000000808F80000000003
:1033C0000020203F202000008080808080808000BE
:1033D000203F20003F20003F0080800080800000D0
:1033E00000203F2100203F200000808080800000DE
:1033F000001F202020201F0080800080800000000F
:1034000080FFA12020110E0000000080808080003D
:10341000000E112020A0FF8080808000808080002E
:1034200020203F212000010000008080808080005B
:103430000033242424241900008080E080800000D0
:103440000000001F2020000080800000008080001D
:10345000001F202020103F2080808000008080807E
:1034600000010E300806010080800080008080800E
:103470000F300C030C300F00008080008080800033
:103480000020312E0E31200080808000008080805E
:1034900080818E701806010000808080808080000E
:1034A0000021302C2221300000000000807C02022C
:1034B00000000000003F404000000000FF0000004E
:1034C00000000000FF0000000002027C80000000FD
:1034D0000040403F0000000000804040800000802D
:1034E00000000000000101000000000000000000DA
:1034F000002F000000000700070000147F147F1455
:1035000000242A7F2A1200231308646200364955DA
:10351000225000000007000000001C2241000000B3
:1035200041221C000014083E08140008083E080848
:10353000000000A0600000080808080800006060A3
:103540000000002010080402003E5149453E0000E2
:10355000427F4000004261514946002141454B31C4
:10356000001814127F10002745454539003C4A4990
:103570004930000171090503003649494936000602
:103580004949291E0000363600000000563600006A
:1035900000081422410000141414141400004122E5
:1035A0001408000201510906003E4955592E007CBD
:1035B0001211127C007F49494936003E41414122A7
:1035C000007F4141221C007F49494941007F090990
:1035D0000901003E4149497A007F0808087F000040
:1035E000417F4100002040413F01007F08142241FB
:1035F000007F40404040007F020C027F007F0408B3
:10360000107F003E4141413E007F09090906003E0E
:103610004151215E007F0919294600464949493137
:103620000001017F0101003F4040403F001F20405A
:10363000201F003F4038403F006314081463000718
:103640000870080700615149454300007F4141006F
:10365000000204081020000041417F000004020124
:1036600002040040404040400000010204000020ED
:1036700054545478007F484444380038444444202B
:1036800000384444487F00385454541800087E09D8
:1036900001020018A4A4A47C007F080404780000A0
:1036A000447D4000004080847D00007F102844005D
:1036B0000000417F4000007C04180478007C08046E
:1036C000047800384444443800FC242424180018AA
:1036D000242418FC007C0804040800485454542096
:1036E00000043F444020003C4040207C001C20401F
:1036F000201C003C4030403C004428102844001C62
:10370000A0A0A07C004464544C440000087F410009
:103710000000007F00000000417F0800000804084E
:1037200010080000000000000000000030313233BB
:1037300034353637383941424344454640305800E5
:103740003031323334353637383961626364656617
:103750004030780004000008000000000000000273
:1037600000010000103031323334353637383961DA
:1037700062636465667870003031323334353637D1
:103780003839414243444546585000000240000049
:10379000000000A00000000005400000000000C87C
:1037A000000000000C4000000000409C00000000F1
:1037B000194000000020BCBE0000000034400000A2
:1037C000BFC91B8E00000004B5400000504BCFD095
:1037D0006607E2CF010000006C4100003E8251AA62
:1037E000DFEEA73401000000D9420000DCB5A0E202
:1037F0003A301F97FFFFFFFFB4450000FD25A0C82A
:10380000E9A3C14FFFFFFFFFFF3F00000000008062
:1038100000000000FF3F00000000008000000000EA
:103820006C3900080000002030000000280100086A
:103830009C39000830000020600A000044010008A4
:103840001C00000043000000F8FFFFFF0C00000018
:103850000E0000000F0000002E000000100100000C
:1038600043000000F8FFFFFF004040404040404060
:103870004040414141414140404040404040404043
:1038800040404040404040404005020202020202E7
:103890000202020202020202022020202020202036
:1038A000202020020202020202029090909090904A
:1038B0001010101010101010101010101010101008
:1038C000101010100202020202028888888888887C
:1038D0000808080808080808080808080808080868
:1038E0000808080802020202400000000000000070
:1038F00000000000000000000000000000000000C8
:1039000000000000000000000000000000000000B7
:1039100000000000000000000000000000000000A7
:103920000000000000000000000000000000000097
:103930000000000000000000000000000000000087
:103940000000000000000000000000000000000077
:103950000000000000000000000000000000000067
:103960000000000000000000000000000204060843
:103970000000000001020304010203040607080915
:103980000000000000000000020000000000000035
:0C3990000000000000000000000000002B
:04000005080000ED02
:00000001FF
